{
  "contractName": "SolnSquareVerifier",
  "abi": [
    {
      "constant": true,
      "inputs": [
        {
          "name": "_address",
          "type": "address"
        }
      ],
      "name": "isValidAddress",
      "outputs": [
        {
          "name": "",
          "type": "bool"
        }
      ],
      "payable": false,
      "stateMutability": "pure",
      "type": "function"
    },
    {
      "constant": true,
      "inputs": [
        {
          "name": "interfaceId",
          "type": "bytes4"
        }
      ],
      "name": "supportsInterface",
      "outputs": [
        {
          "name": "",
          "type": "bool"
        }
      ],
      "payable": false,
      "stateMutability": "view",
      "type": "function"
    },
    {
      "constant": true,
      "inputs": [
        {
          "name": "tokenId",
          "type": "uint256"
        }
      ],
      "name": "getApproved",
      "outputs": [
        {
          "name": "",
          "type": "address"
        }
      ],
      "payable": false,
      "stateMutability": "view",
      "type": "function"
    },
    {
      "constant": false,
      "inputs": [
        {
          "name": "to",
          "type": "address"
        },
        {
          "name": "tokenId",
          "type": "uint256"
        }
      ],
      "name": "approve",
      "outputs": [],
      "payable": false,
      "stateMutability": "nonpayable",
      "type": "function"
    },
    {
      "constant": true,
      "inputs": [],
      "name": "getSymbol",
      "outputs": [
        {
          "name": "",
          "type": "string"
        }
      ],
      "payable": false,
      "stateMutability": "view",
      "type": "function"
    },
    {
      "constant": false,
      "inputs": [
        {
          "name": "paused",
          "type": "bool"
        }
      ],
      "name": "setPaused",
      "outputs": [],
      "payable": false,
      "stateMutability": "nonpayable",
      "type": "function"
    },
    {
      "constant": true,
      "inputs": [],
      "name": "getName",
      "outputs": [
        {
          "name": "",
          "type": "string"
        }
      ],
      "payable": false,
      "stateMutability": "view",
      "type": "function"
    },
    {
      "constant": true,
      "inputs": [],
      "name": "totalSupply",
      "outputs": [
        {
          "name": "",
          "type": "uint256"
        }
      ],
      "payable": false,
      "stateMutability": "view",
      "type": "function"
    },
    {
      "constant": false,
      "inputs": [
        {
          "name": "from",
          "type": "address"
        },
        {
          "name": "to",
          "type": "address"
        },
        {
          "name": "tokenId",
          "type": "uint256"
        }
      ],
      "name": "transferFrom",
      "outputs": [],
      "payable": false,
      "stateMutability": "nonpayable",
      "type": "function"
    },
    {
      "constant": false,
      "inputs": [
        {
          "name": "_myid",
          "type": "bytes32"
        },
        {
          "name": "_result",
          "type": "string"
        }
      ],
      "name": "__callback",
      "outputs": [],
      "payable": false,
      "stateMutability": "nonpayable",
      "type": "function"
    },
    {
      "constant": true,
      "inputs": [
        {
          "name": "owner",
          "type": "address"
        },
        {
          "name": "index",
          "type": "uint256"
        }
      ],
      "name": "tokenOfOwnerByIndex",
      "outputs": [
        {
          "name": "",
          "type": "uint256"
        }
      ],
      "payable": false,
      "stateMutability": "view",
      "type": "function"
    },
    {
      "constant": false,
      "inputs": [
        {
          "name": "_myid",
          "type": "bytes32"
        },
        {
          "name": "_result",
          "type": "string"
        },
        {
          "name": "_proof",
          "type": "bytes"
        }
      ],
      "name": "__callback",
      "outputs": [],
      "payable": false,
      "stateMutability": "nonpayable",
      "type": "function"
    },
    {
      "constant": false,
      "inputs": [
        {
          "name": "to",
          "type": "address"
        },
        {
          "name": "tokenId",
          "type": "uint256"
        }
      ],
      "name": "mint",
      "outputs": [
        {
          "name": "",
          "type": "bool"
        }
      ],
      "payable": false,
      "stateMutability": "nonpayable",
      "type": "function"
    },
    {
      "constant": false,
      "inputs": [
        {
          "name": "from",
          "type": "address"
        },
        {
          "name": "to",
          "type": "address"
        },
        {
          "name": "tokenId",
          "type": "uint256"
        }
      ],
      "name": "safeTransferFrom",
      "outputs": [],
      "payable": false,
      "stateMutability": "nonpayable",
      "type": "function"
    },
    {
      "constant": true,
      "inputs": [],
      "name": "getContractOwner",
      "outputs": [
        {
          "name": "",
          "type": "address"
        }
      ],
      "payable": false,
      "stateMutability": "view",
      "type": "function"
    },
    {
      "constant": true,
      "inputs": [],
      "name": "squareVerifier",
      "outputs": [
        {
          "name": "",
          "type": "address"
        }
      ],
      "payable": false,
      "stateMutability": "view",
      "type": "function"
    },
    {
      "constant": true,
      "inputs": [
        {
          "name": "index",
          "type": "uint256"
        }
      ],
      "name": "tokenByIndex",
      "outputs": [
        {
          "name": "",
          "type": "uint256"
        }
      ],
      "payable": false,
      "stateMutability": "view",
      "type": "function"
    },
    {
      "constant": true,
      "inputs": [
        {
          "name": "tokenId",
          "type": "uint256"
        }
      ],
      "name": "ownerOf",
      "outputs": [
        {
          "name": "",
          "type": "address"
        }
      ],
      "payable": false,
      "stateMutability": "view",
      "type": "function"
    },
    {
      "constant": true,
      "inputs": [
        {
          "name": "owner",
          "type": "address"
        }
      ],
      "name": "balanceOf",
      "outputs": [
        {
          "name": "",
          "type": "uint256"
        }
      ],
      "payable": false,
      "stateMutability": "view",
      "type": "function"
    },
    {
      "constant": false,
      "inputs": [
        {
          "name": "to",
          "type": "address"
        },
        {
          "name": "approved",
          "type": "bool"
        }
      ],
      "name": "setApprovalForAll",
      "outputs": [],
      "payable": false,
      "stateMutability": "nonpayable",
      "type": "function"
    },
    {
      "constant": false,
      "inputs": [
        {
          "name": "from",
          "type": "address"
        },
        {
          "name": "to",
          "type": "address"
        },
        {
          "name": "tokenId",
          "type": "uint256"
        },
        {
          "name": "_data",
          "type": "bytes"
        }
      ],
      "name": "safeTransferFrom",
      "outputs": [],
      "payable": false,
      "stateMutability": "nonpayable",
      "type": "function"
    },
    {
      "constant": true,
      "inputs": [],
      "name": "getBaseTokenURI",
      "outputs": [
        {
          "name": "",
          "type": "string"
        }
      ],
      "payable": false,
      "stateMutability": "view",
      "type": "function"
    },
    {
      "constant": true,
      "inputs": [
        {
          "name": "tokenId",
          "type": "uint256"
        }
      ],
      "name": "tokenURI",
      "outputs": [
        {
          "name": "",
          "type": "string"
        }
      ],
      "payable": false,
      "stateMutability": "view",
      "type": "function"
    },
    {
      "constant": true,
      "inputs": [
        {
          "name": "owner",
          "type": "address"
        },
        {
          "name": "operator",
          "type": "address"
        }
      ],
      "name": "isApprovedForAll",
      "outputs": [
        {
          "name": "",
          "type": "bool"
        }
      ],
      "payable": false,
      "stateMutability": "view",
      "type": "function"
    },
    {
      "constant": false,
      "inputs": [
        {
          "name": "newOwner",
          "type": "address"
        }
      ],
      "name": "transferOwnership",
      "outputs": [],
      "payable": false,
      "stateMutability": "nonpayable",
      "type": "function"
    },
    {
      "inputs": [
        {
          "name": "verifierAddress",
          "type": "address"
        }
      ],
      "payable": false,
      "stateMutability": "nonpayable",
      "type": "constructor"
    },
    {
      "anonymous": false,
      "inputs": [
        {
          "indexed": false,
          "name": "_index",
          "type": "uint256"
        },
        {
          "indexed": false,
          "name": "_address",
          "type": "address"
        }
      ],
      "name": "SolutionAdded",
      "type": "event"
    },
    {
      "anonymous": false,
      "inputs": [
        {
          "indexed": true,
          "name": "owner",
          "type": "address"
        },
        {
          "indexed": true,
          "name": "uri",
          "type": "string"
        }
      ],
      "name": "NewTokenMinted",
      "type": "event"
    },
    {
      "anonymous": false,
      "inputs": [
        {
          "indexed": true,
          "name": "from",
          "type": "address"
        },
        {
          "indexed": true,
          "name": "to",
          "type": "address"
        },
        {
          "indexed": true,
          "name": "tokenId",
          "type": "uint256"
        }
      ],
      "name": "Transfer",
      "type": "event"
    },
    {
      "anonymous": false,
      "inputs": [
        {
          "indexed": true,
          "name": "owner",
          "type": "address"
        },
        {
          "indexed": true,
          "name": "approved",
          "type": "address"
        },
        {
          "indexed": true,
          "name": "tokenId",
          "type": "uint256"
        }
      ],
      "name": "Approval",
      "type": "event"
    },
    {
      "anonymous": false,
      "inputs": [
        {
          "indexed": true,
          "name": "owner",
          "type": "address"
        },
        {
          "indexed": true,
          "name": "operator",
          "type": "address"
        },
        {
          "indexed": false,
          "name": "approved",
          "type": "bool"
        }
      ],
      "name": "ApprovalForAll",
      "type": "event"
    },
    {
      "anonymous": false,
      "inputs": [
        {
          "indexed": false,
          "name": "pauser",
          "type": "address"
        }
      ],
      "name": "Paused",
      "type": "event"
    },
    {
      "anonymous": false,
      "inputs": [
        {
          "indexed": false,
          "name": "unpauser",
          "type": "address"
        }
      ],
      "name": "Unpaused",
      "type": "event"
    },
    {
      "anonymous": false,
      "inputs": [
        {
          "indexed": false,
          "name": "newOwner",
          "type": "address"
        }
      ],
      "name": "OwnershipTransferred",
      "type": "event"
    },
    {
      "constant": false,
      "inputs": [
        {
          "name": "Id",
          "type": "uint256"
        },
        {
          "name": "owner",
          "type": "address"
        }
      ],
      "name": "addSolution",
      "outputs": [],
      "payable": false,
      "stateMutability": "nonpayable",
      "type": "function"
    },
    {
      "constant": false,
      "inputs": [
        {
          "name": "Id",
          "type": "uint256"
        },
        {
          "name": "a",
          "type": "uint256[2]"
        },
        {
          "name": "b",
          "type": "uint256[2][2]"
        },
        {
          "name": "c",
          "type": "uint256[2]"
        },
        {
          "name": "input",
          "type": "uint256[1]"
        }
      ],
      "name": "mintTokens",
      "outputs": [
        {
          "name": "result",
          "type": "bool"
        }
      ],
      "payable": false,
      "stateMutability": "nonpayable",
      "type": "function"
    }
  ],
  "bytecode": "0x60806040523480156200001157600080fd5b5060405160208062004105833981018060405262000033919081019062000386565b6040518060400160405280601781526020017f436f6d706c657465204d696e7461626c6520546f6b656e0000000000000000008152506040518060400160405280600481526020017f434d5054000000000000000000000000000000000000000000000000000000008152506040518060600160405280603f8152602001620040c6603f9139336000806101000a81548173ffffffffffffffffffffffffffffffffffffffff021916908373ffffffffffffffffffffffffffffffffffffffff16021790555060008060146101000a81548160ff0219169083151502179055506200012b6301ffc9a760e01b6200022160201b60201c565b620001436380ac58cd60e01b6200022160201b60201c565b6200015b63780e9d6360e01b6200022160201b60201c565b82600f908051906020019062000173929190620002c1565b5081601090805190602001906200018c929190620002c1565b508060119080519060200190620001a5929190620002c1565b50620001be635b5e139f60e01b6200022160201b60201c565b505050620001d96301ffc9a960e01b6200022160201b60201c565b80601460006101000a81548173ffffffffffffffffffffffffffffffffffffffff021916908373ffffffffffffffffffffffffffffffffffffffff16021790555050620003e6565b63ffffffff60e01b817bffffffffffffffffffffffffffffffffffffffffffffffffffffffff191614156200025557600080fd5b6001806000837bffffffffffffffffffffffffffffffffffffffffffffffffffffffff19167bffffffffffffffffffffffffffffffffffffffffffffffffffffffff1916815260200190815260200160002060006101000a81548160ff02191690831515021790555050565b828054600181600116156101000203166002900490600052602060002090601f016020900481019282601f106200030457805160ff191683800117855562000335565b8280016001018555821562000335579182015b828111156200033457825182559160200191906001019062000317565b5b50905062000344919062000348565b5090565b6200036d91905b80821115620003695760008160009055506001016200034f565b5090565b90565b60006200037e8251620003b2565b905092915050565b6000602082840312156200039957600080fd5b6000620003a98482850162000370565b91505092915050565b6000620003bf82620003c6565b9050919050565b600073ffffffffffffffffffffffffffffffffffffffff82169050919050565b613cd080620003f66000396000f3fe608060405234801561001057600080fd5b50600436106101a85760003560e01c806340c10f19116100f9578063a22cb46511610097578063c87b56dd11610071578063c87b56dd146104f1578063ccd0ef6914610521578063e985e9c51461053d578063f2fde38b1461056d576101a8565b8063a22cb4651461049b578063b88d4fde146104b7578063bdc32be0146104d3576101a8565b80634c1b1c93116100d35780634c1b1c93146103ed5780634f6ccce71461040b5780636352211e1461043b57806370a082311461046b576101a8565b806340c10f191461038357806342842e0e146103b3578063442890d5146103cf576101a8565b806317d7de7c1161016657806327dc297e1161014057806327dc297e146102eb57806328c155b6146103075780632f745c591461033757806338bbfa5014610367576101a8565b806317d7de7c1461029357806318160ddd146102b157806323b872dd146102cf576101a8565b80623f07fa146101ad57806301ffc9a7146101dd578063081812fc1461020d578063095ea7b31461023d578063150704011461025957806316c38b3c14610277575b600080fd5b6101c760048036036101c29190810190612ac7565b610589565b6040516101d491906136e3565b60405180910390f35b6101f760048036036101f29190810190612d93565b6105c2565b60405161020491906136e3565b60405180910390f35b61022760048036036102229190810190612de5565b61062a565b6040516102349190613635565b60405180910390f35b61025760048036036102529190810190612c32565b61067b565b005b610261610801565b60405161026e9190613719565b60405180910390f35b610291600480360361028c9190810190612c6e565b6108a3565b005b61029b6109a5565b6040516102a89190613719565b60405180910390f35b6102b9610a47565b6040516102c691906138db565b60405180910390f35b6102e960048036036102e49190810190612b2c565b610a54565b005b61030560048036036103009190810190612cc0565b610a8c565b005b610321600480360361031c9190810190612e4a565b610acf565b60405161032e91906136e3565b60405180910390f35b610351600480360361034c9190810190612c32565b610c27565b60405161035e91906138db565b60405180910390f35b610381600480360361037c9190810190612d14565b610c9a565b005b61039d60048036036103989190810190612c32565b610c9f565b6040516103aa91906136e3565b60405180910390f35b6103cd60048036036103c89190810190612b2c565b610daa565b005b6103d7610ddf565b6040516103e49190613635565b60405180910390f35b6103f5610e08565b60405161040291906136fe565b60405180910390f35b61042560048036036104209190810190612de5565b610e2e565b60405161043291906138db565b60405180910390f35b61045560048036036104509190810190612de5565b610e62565b6040516104629190613635565b60405180910390f35b61048560048036036104809190810190612ac7565b610eb3565b60405161049291906138db565b60405180910390f35b6104b560048036036104b09190810190612bf6565b610f13565b005b6104d160048036036104cc9190810190612b7b565b61105e565b005b6104db611099565b6040516104e89190613719565b60405180910390f35b61050b60048036036105069190810190612de5565b61113b565b6040516105189190613719565b60405180910390f35b61053b60048036036105369190810190612e0e565b611202565b005b61055760048036036105529190810190612af0565b6113f2565b60405161056491906136e3565b60405180910390f35b61058760048036036105829190810190612ac7565b61149a565b005b60008073ffffffffffffffffffffffffffffffffffffffff168273ffffffffffffffffffffffffffffffffffffffff1614159050919050565b600060016000837bffffffffffffffffffffffffffffffffffffffffffffffffffffffff19167bffffffffffffffffffffffffffffffffffffffffffffffffffffffff1916815260200190815260200160002060009054906101000a900460ff169050919050565b60008060149054906101000a900460ff16610676576003600083815260200190815260200160002060009054906101000a900473ffffffffffffffffffffffffffffffffffffffff1690505b919050565b600060149054906101000a900460ff166107fd5761069881610e62565b73ffffffffffffffffffffffffffffffffffffffff168273ffffffffffffffffffffffffffffffffffffffff161415610706576040517f08c379a00000000000000000000000000000000000000000000000000000000081526004016106fd9061383b565b60405180910390fd5b61071033826115eb565b61074f576040517f08c379a00000000000000000000000000000000000000000000000000000000081526004016107469061379b565b60405180910390fd5b816003600083815260200190815260200160002060006101000a81548173ffffffffffffffffffffffffffffffffffffffff021916908373ffffffffffffffffffffffffffffffffffffffff160217905550808273ffffffffffffffffffffffffffffffffffffffff163373ffffffffffffffffffffffffffffffffffffffff167f8c5be1e5ebec7d5bd14f71427d1e84f3dd0314c0f7b2291e5b200ac8c7c3b92560405160405180910390a45b5050565b606060108054600181600116156101000203166002900480601f0160208091040260200160405190810160405280929190818152602001828054600181600116156101000203166002900480156108995780601f1061086e57610100808354040283529160200191610899565b820191906000526020600020905b81548152906001019060200180831161087c57829003601f168201915b5050505050905090565b6000809054906101000a900473ffffffffffffffffffffffffffffffffffffffff1673ffffffffffffffffffffffffffffffffffffffff163373ffffffffffffffffffffffffffffffffffffffff1614610932576040517f08c379a00000000000000000000000000000000000000000000000000000000081526004016109299061375b565b60405180910390fd5b600060149054906101000a900460ff1615158115151415610988576040517f08c379a000000000000000000000000000000000000000000000000000000000815260040161097f906137db565b60405180910390fd5b80600060146101000a81548160ff02191690831515021790555050565b6060600f8054600181600116156101000203166002900480601f016020809104026020016040519081016040528092919081815260200182805460018160011615610100020316600290048015610a3d5780601f10610a1257610100808354040283529160200191610a3d565b820191906000526020600020905b815481529060010190602001808311610a2057829003601f168201915b5050505050905090565b6000600880549050905090565b600060149054906101000a900460ff16610a8757610a7233826115eb565b610a7b57600080fd5b610a86838383611695565b5b505050565b610acb828260006040519080825280601f01601f191660200182016040528015610ac55781602001600182028038833980820191505090505b50610c9a565b5050565b6000601460009054906101000a900473ffffffffffffffffffffffffffffffffffffffff1673ffffffffffffffffffffffffffffffffffffffff1663dd129313868686866040518563ffffffff1660e01b8152600401610b32949392919061369c565b60206040518083038186803b158015610b4a57600080fd5b505afa158015610b5e573d6000803e3d6000fd5b505050506040513d601f19601f82011682018060405250610b829190810190612c97565b610bc1576040517f08c379a0000000000000000000000000000000000000000000000000000000008152600401610bb89061387b565b60405180910390fd5b610bcb8633611202565b610bd53387610c9f565b90506001151581151514610c1e576040517f08c379a0000000000000000000000000000000000000000000000000000000008152600401610c159061377b565b60405180910390fd5b95945050505050565b6000610c3283610eb3565b8210610c3d57600080fd5b600660008473ffffffffffffffffffffffffffffffffffffffff1673ffffffffffffffffffffffffffffffffffffffff1681526020019081526020016000208281548110610c8757fe5b9060005260206000200154905092915050565b505050565b60008060009054906101000a900473ffffffffffffffffffffffffffffffffffffffff1673ffffffffffffffffffffffffffffffffffffffff163373ffffffffffffffffffffffffffffffffffffffff1614610d30576040517f08c379a0000000000000000000000000000000000000000000000000000000008152600401610d279061375b565b60405180910390fd5b610d3a83836116b9565b6060610d45836116da565b905080604051610d55919061361e565b60405180910390208473ffffffffffffffffffffffffffffffffffffffff167ee705e3614976c3d5c59c0907231ec8257134a4315ad94dd897a1751428d21260405160405180910390a3600191505092915050565b600060149054906101000a900460ff16610dda57610dd98383836040518060200160405280600081525061105e565b5b505050565b60008060009054906101000a900473ffffffffffffffffffffffffffffffffffffffff16905090565b601460009054906101000a900473ffffffffffffffffffffffffffffffffffffffff1681565b6000610e38610a47565b8210610e4357600080fd5b60088281548110610e5057fe5b90600052602060002001549050919050565b60008060149054906101000a900460ff16610eae576002600083815260200190815260200160002060009054906101000a900473ffffffffffffffffffffffffffffffffffffffff1690505b919050565b60008060149054906101000a900460ff16610f0e57600460008373ffffffffffffffffffffffffffffffffffffffff1673ffffffffffffffffffffffffffffffffffffffff1681526020019081526020016000206000015490505b919050565b600060149054906101000a900460ff1661105a573373ffffffffffffffffffffffffffffffffffffffff168273ffffffffffffffffffffffffffffffffffffffff161415610f6057600080fd5b80600560003373ffffffffffffffffffffffffffffffffffffffff1673ffffffffffffffffffffffffffffffffffffffff16815260200190815260200160002060008473ffffffffffffffffffffffffffffffffffffffff1673ffffffffffffffffffffffffffffffffffffffff16815260200190815260200160002060006101000a81548160ff0219169083151502179055508173ffffffffffffffffffffffffffffffffffffffff163373ffffffffffffffffffffffffffffffffffffffff167f17307eab39ab6107e8899845ad3d59bd9653f200f220920489ca2b5937696c318360405161105191906136e3565b60405180910390a35b5050565b600060149054906101000a900460ff166110935761107d848484610a54565b6110898484848461180b565b61109257600080fd5b5b50505050565b606060118054600181600116156101000203166002900480601f0160208091040260200160405190810160405280929190818152602001828054600181600116156101000203166002900480156111315780601f1061110657610100808354040283529160200191611131565b820191906000526020600020905b81548152906001019060200180831161111457829003601f168201915b5050505050905090565b606061114682611936565b61114f57600080fd5b601260008381526020019081526020016000208054600181600116156101000203166002900480601f0160208091040260200160405190810160405280929190818152602001828054600181600116156101000203166002900480156111f65780601f106111cb576101008083540402835291602001916111f6565b820191906000526020600020905b8154815290600101906020018083116111d957829003601f168201915b50505050509050919050565b61120a6126b9565b60136000848152602001908152602001600020604051806060016040529081600082015481526020016001820160009054906101000a900473ffffffffffffffffffffffffffffffffffffffff1673ffffffffffffffffffffffffffffffffffffffff1673ffffffffffffffffffffffffffffffffffffffff1681526020016001820160149054906101000a900460ff16151515158152505090508060400151156112ea576040517f08c379a00000000000000000000000000000000000000000000000000000000081526004016112e1906137fb565b60405180910390fd5b60405180606001604052808481526020018373ffffffffffffffffffffffffffffffffffffffff1681526020016001151581525090508060136000836000015181526020019081526020016000206000820151816000015560208201518160010160006101000a81548173ffffffffffffffffffffffffffffffffffffffff021916908373ffffffffffffffffffffffffffffffffffffffff16021790555060408201518160010160146101000a81548160ff0219169083151502179055509050507f078793128cefb19aac38a33f9e5df39f67716907f6d747e8065545699e0b2b8d816000015182602001516040516113e59291906138f6565b60405180910390a1505050565b60008060149054906101000a900460ff1661149457600560008473ffffffffffffffffffffffffffffffffffffffff1673ffffffffffffffffffffffffffffffffffffffff16815260200190815260200160002060008373ffffffffffffffffffffffffffffffffffffffff1673ffffffffffffffffffffffffffffffffffffffff16815260200190815260200160002060009054906101000a900460ff1690505b92915050565b6000809054906101000a900473ffffffffffffffffffffffffffffffffffffffff1673ffffffffffffffffffffffffffffffffffffffff163373ffffffffffffffffffffffffffffffffffffffff1614611529576040517f08c379a00000000000000000000000000000000000000000000000000000000081526004016115209061375b565b60405180910390fd5b61153281610589565b611571576040517f08c379a00000000000000000000000000000000000000000000000000000000081526004016115689061373b565b60405180910390fd5b806000806101000a81548173ffffffffffffffffffffffffffffffffffffffff021916908373ffffffffffffffffffffffffffffffffffffffff1602179055507f04dba622d284ed0014ee4b9a6a68386be1a4c08a4913ae272de89199cc686163816040516115e09190613635565b60405180910390a150565b60008060149054906101000a900460ff1661168f57600061160b83610e62565b90508073ffffffffffffffffffffffffffffffffffffffff168473ffffffffffffffffffffffffffffffffffffffff16148061167a57508373ffffffffffffffffffffffffffffffffffffffff166116628461062a565b73ffffffffffffffffffffffffffffffffffffffff16145b8061168b575061168a81856113f2565b5b9150505b92915050565b6116a08383836119bd565b6116aa8382611bac565b6116b48282611d4a565b505050565b6116c38282611e11565b6116cd8282611d4a565b6116d68161203e565b5050565b60606116e582611936565b611724576040517f08c379a000000000000000000000000000000000000000000000000000000000815260040161171b9061385b565b60405180910390fd5b606061172f8361208a565b905060606117d760118054600181600116156101000203166002900480601f0160208091040260200160405190810160405280929190818152602001828054600181600116156101000203166002900480156117cc5780601f106117a1576101008083540402835291602001916117cc565b820191906000526020600020905b8154815290600101906020018083116117af57829003601f168201915b5050505050836121b7565b9050806012600086815260200190815260200160002090805190602001906118009291906126f2565b508092505050919050565b60008060149054906101000a900460ff1661192e5761183f8473ffffffffffffffffffffffffffffffffffffffff166121fb565b61184c576001905061192d565b60008473ffffffffffffffffffffffffffffffffffffffff1663150b7a02338887876040518563ffffffff1660e01b815260040161188d9493929190613650565b602060405180830381600087803b1580156118a757600080fd5b505af11580156118bb573d6000803e3d6000fd5b505050506040513d601f19601f820116820180604052506118df9190810190612dbc565b905063150b7a0260e01b7bffffffffffffffffffffffffffffffffffffffffffffffffffffffff1916817bffffffffffffffffffffffffffffffffffffffffffffffffffffffff1916149150505b5b949350505050565b60008060149054906101000a900460ff166119b85760006002600084815260200190815260200160002060009054906101000a900473ffffffffffffffffffffffffffffffffffffffff169050600073ffffffffffffffffffffffffffffffffffffffff168173ffffffffffffffffffffffffffffffffffffffff1614159150505b919050565b600060149054906101000a900460ff16611ba7576119db83826115eb565b611a1a576040517f08c379a0000000000000000000000000000000000000000000000000000000008152600401611a11906137bb565b60405180910390fd5b611a2382610589565b611a62576040517f08c379a0000000000000000000000000000000000000000000000000000000008152600401611a59906138bb565b60405180910390fd5b611a6b81612246565b611ab2600460008573ffffffffffffffffffffffffffffffffffffffff1673ffffffffffffffffffffffffffffffffffffffff168152602001908152602001600020612319565b816002600083815260200190815260200160002060006101000a81548173ffffffffffffffffffffffffffffffffffffffff021916908373ffffffffffffffffffffffffffffffffffffffff160217905550611b4b600460008473ffffffffffffffffffffffffffffffffffffffff1673ffffffffffffffffffffffffffffffffffffffff16815260200190815260200160002061233c565b808273ffffffffffffffffffffffffffffffffffffffff168473ffffffffffffffffffffffffffffffffffffffff167fddf252ad1be2c89b69c2b068fc378daa952ba7f163c4a11628f55a4df523b3ef60405160405180910390a45b505050565b6000611c046001600660008673ffffffffffffffffffffffffffffffffffffffff1673ffffffffffffffffffffffffffffffffffffffff1681526020019081526020016000208054905061235290919063ffffffff16565b9050600060076000848152602001908152602001600020549050818114611cf1576000600660008673ffffffffffffffffffffffffffffffffffffffff1673ffffffffffffffffffffffffffffffffffffffff1681526020019081526020016000208381548110611c7157fe5b9060005260206000200154905080600660008773ffffffffffffffffffffffffffffffffffffffff1673ffffffffffffffffffffffffffffffffffffffff1681526020019081526020016000208381548110611cc957fe5b9060005260206000200181905550816007600083815260200190815260200160002081905550505b600660008573ffffffffffffffffffffffffffffffffffffffff1673ffffffffffffffffffffffffffffffffffffffff168152602001908152602001600020805480919060019003611d439190612772565b5050505050565b600660008373ffffffffffffffffffffffffffffffffffffffff1673ffffffffffffffffffffffffffffffffffffffff168152602001908152602001600020805490506007600083815260200190815260200160002081905550600660008373ffffffffffffffffffffffffffffffffffffffff1673ffffffffffffffffffffffffffffffffffffffff1681526020019081526020016000208190806001815401808255809150509060018203906000526020600020016000909192909190915055505050565b600060149054906101000a900460ff1661203a576000809054906101000a900473ffffffffffffffffffffffffffffffffffffffff1673ffffffffffffffffffffffffffffffffffffffff163373ffffffffffffffffffffffffffffffffffffffff1614611eb4576040517f08c379a0000000000000000000000000000000000000000000000000000000008152600401611eab9061375b565b60405180910390fd5b611ebd81611936565b15611efd576040517f08c379a0000000000000000000000000000000000000000000000000000000008152600401611ef49061381b565b60405180910390fd5b611f0682610589565b611f45576040517f08c379a0000000000000000000000000000000000000000000000000000000008152600401611f3c9061389b565b60405180910390fd5b816002600083815260200190815260200160002060006101000a81548173ffffffffffffffffffffffffffffffffffffffff021916908373ffffffffffffffffffffffffffffffffffffffff160217905550611fde600460008473ffffffffffffffffffffffffffffffffffffffff1673ffffffffffffffffffffffffffffffffffffffff16815260200190815260200160002061233c565b808273ffffffffffffffffffffffffffffffffffffffff163373ffffffffffffffffffffffffffffffffffffffff167fddf252ad1be2c89b69c2b068fc378daa952ba7f163c4a11628f55a4df523b3ef60405160405180910390a45b5050565b6008805490506009600083815260200190815260200160002081905550600881908060018154018082558091505090600182039060005260206000200160009091929091909150555050565b606060008214156120d2576040518060400160405280600181526020017f300000000000000000000000000000000000000000000000000000000000000081525090506121b2565b600082905060005b600082146120fc578080600101915050600a82816120f457fe5b0491506120da565b6060816040519080825280601f01601f1916602001820160405280156121315781602001600182028038833980820191505090505b50905060006001830390505b600086146121aa57600a868161214f57fe5b0660300160f81b8282806001900393508151811061216957fe5b60200101907effffffffffffffffffffffffffffffffffffffffffffffffffffffffffffff1916908160001a905350600a86816121a257fe5b04955061213d565b819450505050505b919050565b60606121f3838360405180602001604052806000815250604051806020016040528060008152506040518060200160405280600081525061239c565b905092915050565b60008060007fc5d2460186f7233c927e7db2dcc703c0e500b653ca82273b7bfad8045d85a47060001b9050833f915080821415801561223d57506000801b8214155b92505050919050565b600060149054906101000a900460ff1661231657600073ffffffffffffffffffffffffffffffffffffffff166003600083815260200190815260200160002060009054906101000a900473ffffffffffffffffffffffffffffffffffffffff1673ffffffffffffffffffffffffffffffffffffffff16146123155760006003600083815260200190815260200160002060006101000a81548173ffffffffffffffffffffffffffffffffffffffff021916908373ffffffffffffffffffffffffffffffffffffffff1602179055505b5b50565b6123316001826000015461235290919063ffffffff16565b816000018190555050565b6001816000016000828254019250508190555050565b600061239483836040518060400160405280601e81526020017f536166654d6174683a207375627472616374696f6e206f766572666c6f77000081525061265e565b905092915050565b6060808690506060869050606086905060608690506060869050606081518351855187518951010101016040519080825280601f01601f1916602001820160405280156123f85781602001600182028038833980820191505090505b509050606081905060008090506000809050600090505b885181101561247d5788818151811061242457fe5b602001015160f81c60f81b83838060010194508151811061244157fe5b60200101907effffffffffffffffffffffffffffffffffffffffffffffffffffffffffffff1916908160001a905350808060010191505061240f565b600090505b87518110156124f05787818151811061249757fe5b602001015160f81c60f81b8383806001019450815181106124b457fe5b60200101907effffffffffffffffffffffffffffffffffffffffffffffffffffffffffffff1916908160001a9053508080600101915050612482565b600090505b86518110156125635786818151811061250a57fe5b602001015160f81c60f81b83838060010194508151811061252757fe5b60200101907effffffffffffffffffffffffffffffffffffffffffffffffffffffffffffff1916908160001a90535080806001019150506124f5565b600090505b85518110156125d65785818151811061257d57fe5b602001015160f81c60f81b83838060010194508151811061259a57fe5b60200101907effffffffffffffffffffffffffffffffffffffffffffffffffffffffffffff1916908160001a9053508080600101915050612568565b600090505b8451811015612649578481815181106125f057fe5b602001015160f81c60f81b83838060010194508151811061260d57fe5b60200101907effffffffffffffffffffffffffffffffffffffffffffffffffffffffffffff1916908160001a90535080806001019150506125db565b82995050505050505050505095945050505050565b60008383111582906126a6576040517f08c379a000000000000000000000000000000000000000000000000000000000815260040161269d9190613719565b60405180910390fd5b5060008385039050809150509392505050565b604051806060016040528060008152602001600073ffffffffffffffffffffffffffffffffffffffff1681526020016000151581525090565b828054600181600116156101000203166002900490600052602060002090601f016020900481019282601f1061273357805160ff1916838001178555612761565b82800160010185558215612761579182015b82811115612760578251825591602001919060010190612745565b5b50905061276e919061279e565b5090565b81548183558181111561279957818360005260206000209182019101612798919061279e565b5b505050565b6127c091905b808211156127bc5760008160009055506001016127a4565b5090565b90565b60006127cf8235613b6b565b905092915050565b600082601f8301126127e857600080fd5b60026127fb6127f68261394c565b61391f565b9150818385604084028201111561281157600080fd5b60005b83811015612841578161282788826128bf565b845260208401935060408301925050600181019050612814565b5050505092915050565b600082601f83011261285c57600080fd5b600161286f61286a8261396e565b61391f565b9150818385602084028201111561288557600080fd5b60005b838110156128b5578161289b8882612ab3565b845260208401935060208301925050600181019050612888565b5050505092915050565b600082601f8301126128d057600080fd5b60026128e36128de82613990565b61391f565b915081838560208402820111156128f957600080fd5b60005b83811015612929578161290f8882612ab3565b8452602084019350602083019250506001810190506128fc565b5050505092915050565b600082601f83011261294457600080fd5b6002612957612952826139b2565b61391f565b9150818385602084028201111561296d57600080fd5b60005b8381101561299d57816129838882612ab3565b845260208401935060208301925050600181019050612970565b5050505092915050565b60006129b38235613b7d565b905092915050565b60006129c78251613b7d565b905092915050565b60006129db8235613b89565b905092915050565b60006129ef8235613b93565b905092915050565b6000612a038251613b93565b905092915050565b600082601f830112612a1c57600080fd5b8135612a2f612a2a826139d4565b61391f565b91508082526020830160208301858383011115612a4b57600080fd5b612a56838284613c43565b50505092915050565b600082601f830112612a7057600080fd5b8135612a83612a7e82613a00565b61391f565b91508082526020830160208301858383011115612a9f57600080fd5b612aaa838284613c43565b50505092915050565b6000612abf8235613bdf565b905092915050565b600060208284031215612ad957600080fd5b6000612ae7848285016127c3565b91505092915050565b60008060408385031215612b0357600080fd5b6000612b11858286016127c3565b9250506020612b22858286016127c3565b9150509250929050565b600080600060608486031215612b4157600080fd5b6000612b4f868287016127c3565b9350506020612b60868287016127c3565b9250506040612b7186828701612ab3565b9150509250925092565b60008060008060808587031215612b9157600080fd5b6000612b9f878288016127c3565b9450506020612bb0878288016127c3565b9350506040612bc187828801612ab3565b925050606085013567ffffffffffffffff811115612bde57600080fd5b612bea87828801612a0b565b91505092959194509250565b60008060408385031215612c0957600080fd5b6000612c17858286016127c3565b9250506020612c28858286016129a7565b9150509250929050565b60008060408385031215612c4557600080fd5b6000612c53858286016127c3565b9250506020612c6485828601612ab3565b9150509250929050565b600060208284031215612c8057600080fd5b6000612c8e848285016129a7565b91505092915050565b600060208284031215612ca957600080fd5b6000612cb7848285016129bb565b91505092915050565b60008060408385031215612cd357600080fd5b6000612ce1858286016129cf565b925050602083013567ffffffffffffffff811115612cfe57600080fd5b612d0a85828601612a5f565b9150509250929050565b600080600060608486031215612d2957600080fd5b6000612d37868287016129cf565b935050602084013567ffffffffffffffff811115612d5457600080fd5b612d6086828701612a5f565b925050604084013567ffffffffffffffff811115612d7d57600080fd5b612d8986828701612a0b565b9150509250925092565b600060208284031215612da557600080fd5b6000612db3848285016129e3565b91505092915050565b600060208284031215612dce57600080fd5b6000612ddc848285016129f7565b91505092915050565b600060208284031215612df757600080fd5b6000612e0584828501612ab3565b91505092915050565b60008060408385031215612e2157600080fd5b6000612e2f85828601612ab3565b9250506020612e40858286016127c3565b9150509250929050565b60008060008060006101408688031215612e6357600080fd5b6000612e7188828901612ab3565b9550506020612e8288828901612933565b9450506060612e93888289016127d7565b93505060e0612ea488828901612933565b925050610120612eb68882890161284b565b9150509295509295909350565b6000612ecf838361300a565b60408301905092915050565b6000612ee78383613600565b60208301905092915050565b612efc81613be9565b82525050565b612f0b81613b23565b82525050565b612f1a81613a54565b612f248184613aca565b9250612f2f82613a2c565b60005b82811015612f5d57612f45858351612ec3565b9450612f5082613a96565b9150600181019050612f32565b5050505050565b612f6d81613a5f565b612f778184613ad5565b9250612f8282613a36565b60005b82811015612fb057612f98858351612edb565b9450612fa382613aa3565b9150600181019050612f85565b5050505050565b612fc081613a75565b612fca8184613aeb565b9250612fd582613a4a565b60005b8281101561300357612feb858351612edb565b9450612ff682613abd565b9150600181019050612fd8565b5050505050565b61301381613a6a565b61301d8184613ae0565b925061302882613a40565b60005b828110156130565761303e858351612edb565b945061304982613ab0565b915060018101905061302b565b5050505050565b61306681613b35565b82525050565b600061307782613a80565b6130818185613af6565b9350613091818560208601613c52565b61309a81613c85565b840191505092915050565b6130ae81613bfb565b82525050565b60006130bf82613a8b565b6130c98185613b07565b93506130d9818560208601613c52565b6130e281613c85565b840191505092915050565b60006130f882613a8b565b6131028185613b18565b9350613112818560208601613c52565b80840191505092915050565b600061312b602983613b07565b91507f4e6577206f776e6572206973206e6f7420612076616c6964204574686572657560008301527f6d206164647265737300000000000000000000000000000000000000000000006020830152604082019050919050565b6000613191602183613b07565b91507f4f6e6c79206f776e65722063616e2063616c6c20746869732066756e6374696f60008301527f6e000000000000000000000000000000000000000000000000000000000000006020830152604082019050919050565b60006131f7601783613b07565b91507f436f756c646e2774206d696e742074686520746f6b656e0000000000000000006000830152602082019050919050565b6000613237603783613b07565b91507f4d73672073656e6465722073686f756c64206265206f776e6572206f6620746f60008301527f6b656e206f7220617070726f76656420666f7220616c6c0000000000000000006020830152604082019050919050565b600061329d603583613b07565b91507f4f6e6c79206f776e6572206f6620746f6b656e2c206f7220617070726f76656460008301527f20616464726573732063616e207472616e7366657200000000000000000000006020830152604082019050919050565b6000613303602983613b07565b91507f436f6e74726163742070617573656420616c72656164792073657420746f207460008301527f6869732076616c756500000000000000000000000000000000000000000000006020830152604082019050919050565b6000613369601783613b07565b91507f536f6c7574696f6e206973206e6f7420756e697175652e0000000000000000006000830152602082019050919050565b60006133a9602483613b07565b91507f43616e6f74206d696e74202d20546f6b656e20494420616c726561647920657860008301527f69737473000000000000000000000000000000000000000000000000000000006020830152604082019050919050565b600061340f602183613b07565b91507f54686973206164647265737320697320616c726561647920746865206f776e6560008301527f72000000000000000000000000000000000000000000000000000000000000006020830152604082019050919050565b6000613475603683613b07565b91507f43616e6e6f742067656e657261746520612055524920666f72206120746f6b6560008301527f6e207468617420646f6573206e6f7420657873697374000000000000000000006020830152604082019050919050565b60006134db602c83613b07565b91507f43616e6e6f74206d696e742061206e657720746f6b656e2d205665726966696360008301527f6174696f6e206661696c656400000000000000000000000000000000000000006020830152604082019050919050565b6000613541602d83613b07565b91507f43616e6e6f74206d696e74202d20476976656e2027746f27206164647265737360008301527f206973206e6f742076616c6964000000000000000000000000000000000000006020830152604082019050919050565b60006135a7602e83613b07565b91507f546f6b656e20726563657069656e742061646472657373206973206e6f74206160008301527f2076616c696420616464726573730000000000000000000000000000000000006020830152604082019050919050565b61360981613b61565b82525050565b61361881613b61565b82525050565b600061362a82846130ed565b915081905092915050565b600060208201905061364a6000830184612f02565b92915050565b60006080820190506136656000830187612ef3565b6136726020830186612f02565b61367f604083018561360f565b8181036060830152613691818461306c565b905095945050505050565b6000610120820190506136b26000830187612fb7565b6136bf6040830186612f11565b6136cc60c0830185612fb7565b6136da610100830184612f64565b95945050505050565b60006020820190506136f8600083018461305d565b92915050565b600060208201905061371360008301846130a5565b92915050565b6000602082019050818103600083015261373381846130b4565b905092915050565b600060208201905081810360008301526137548161311e565b9050919050565b6000602082019050818103600083015261377481613184565b9050919050565b60006020820190508181036000830152613794816131ea565b9050919050565b600060208201905081810360008301526137b48161322a565b9050919050565b600060208201905081810360008301526137d481613290565b9050919050565b600060208201905081810360008301526137f4816132f6565b9050919050565b600060208201905081810360008301526138148161335c565b9050919050565b600060208201905081810360008301526138348161339c565b9050919050565b6000602082019050818103600083015261385481613402565b9050919050565b6000602082019050818103600083015261387481613468565b9050919050565b60006020820190508181036000830152613894816134ce565b9050919050565b600060208201905081810360008301526138b481613534565b9050919050565b600060208201905081810360008301526138d48161359a565b9050919050565b60006020820190506138f0600083018461360f565b92915050565b600060408201905061390b600083018561360f565b6139186020830184612f02565b9392505050565b6000604051905081810181811067ffffffffffffffff8211171561394257600080fd5b8060405250919050565b600067ffffffffffffffff82111561396357600080fd5b602082029050919050565b600067ffffffffffffffff82111561398557600080fd5b602082029050919050565b600067ffffffffffffffff8211156139a757600080fd5b602082029050919050565b600067ffffffffffffffff8211156139c957600080fd5b602082029050919050565b600067ffffffffffffffff8211156139eb57600080fd5b601f19601f8301169050602081019050919050565b600067ffffffffffffffff821115613a1757600080fd5b601f19601f8301169050602081019050919050565b6000819050919050565b6000819050919050565b6000819050919050565b6000819050919050565b600060029050919050565b600060019050919050565b600060029050919050565b600060029050919050565b600081519050919050565b600081519050919050565b6000602082019050919050565b6000602082019050919050565b6000602082019050919050565b6000602082019050919050565b600081905092915050565b600081905092915050565b600081905092915050565b600081905092915050565b600082825260208201905092915050565b600082825260208201905092915050565b600081905092915050565b6000613b2e82613b41565b9050919050565b60008115159050919050565b600073ffffffffffffffffffffffffffffffffffffffff82169050919050565b6000819050919050565b6000613b7682613bbf565b9050919050565b60008115159050919050565b6000819050919050565b60007fffffffff0000000000000000000000000000000000000000000000000000000082169050919050565b600073ffffffffffffffffffffffffffffffffffffffff82169050919050565b6000819050919050565b6000613bf482613c1f565b9050919050565b6000613c0682613c0d565b9050919050565b6000613c1882613b41565b9050919050565b6000613c2a82613c31565b9050919050565b6000613c3c82613b41565b9050919050565b82818337600083830152505050565b60005b83811015613c70578082015181840152602081019050613c55565b83811115613c7f576000848401525b50505050565b6000601f19601f830116905091905056fea265627a7a7230582089bfc73dd9740ec27f56ee49c4232bacb280d8987ae4aeb2bbb62972c333491e6c6578706572696d656e74616cf5003768747470733a2f2f73332d75732d776573742d322e616d617a6f6e6177732e636f6d2f756461636974792d626c6f636b636861696e2f63617073746f6e652f",
  "source": "pragma solidity >=0.4.21 <0.6.0;\r\npragma experimental ABIEncoderV2;\r\n\r\nimport './verifier.sol';\r\nimport './ERC721Mintable.sol';\r\n\r\n// TODO define a contract call to the zokrates generated solidity contract <Verifier> or <renamedVerifier>\r\ncontract verifier is Verifier {\r\n    \r\n}\r\n\r\n\r\n// TODO define another contract named SolnSquareVerifier that inherits from your ERC721Mintable class\r\ncontract SolnSquareVerifier is ERC721MintableComplete{\r\n\r\n// TODO define a solutions struct that can hold an index & an address\r\nstruct Solution{\r\n    uint _index;\r\n    address _address;\r\n    bool isValue;\r\n}\r\n\r\n// TODO define an array of the above struct\r\n//Solution[] solutions;\r\n\r\n// TODO define a mapping to store unique solutions submitted\r\nmapping (uint => Solution) uniqueSolutions;\r\n\r\n// Define an interface to the verifier contract generated by zokrates--to use it for verification before minting new tokens\r\nVerifier public squareVerifier; //to access the method in there: verifyTx\r\n\r\n\r\n// TODO Create an event to emit when a solution is added\r\nevent SolutionAdded(uint _index, address _address);\r\n\r\n//Constructor\r\nconstructor(address verifierAddress) public\r\n{\r\n    squareVerifier = Verifier(verifierAddress);\r\n}\r\n\r\n\r\n// TODO Create a function to add the solutions to the array and emit the event\r\nfunction addSolution(uint Id, address owner) public{\r\n    //solutions.push(sol);\r\n    Solution memory sol = uniqueSolutions[Id];\r\n    require(!sol.isValue, \"Solution is not unique.\");\r\n    sol = Solution(Id, owner, true);\r\n    uniqueSolutions[sol._index] = sol;\r\n    emit SolutionAdded(sol._index, sol._address);\r\n}\r\n\r\n// TODO Create a function to mint new NFT only after the solution has been verified\r\n//  - make sure the solution is unique (has not been used before)\r\n//  - make sure you handle metadata as well as tokenSupply\r\n//      -returns a true boolean upon completion of the function\r\n//      -calls the superclass mint function\r\nfunction mintTokens(\r\n        uint Id,\r\n        uint[2] memory a,\r\n        uint[2][2] memory b,\r\n        uint[2] memory c, uint[1] memory input) \r\n    public\r\n    returns(bool result)\r\n{\r\n    require(squareVerifier.verifyTx(a, b, c, input), \"Cannot mint a new token- Verification failed\");\r\n    addSolution(Id, msg.sender);\r\n    result = mint(msg.sender, Id);\r\n    require(result == true, \"Couldn't mint the token\");\r\n}\r\n\r\n}//end contract\r\n/*\r\n//Interface to verifier contract generated by zokrates:\r\ncontract Verifier{\r\n    //function verifyingKey() pure internal returns (VerifyingKey memory vk);\r\n    //function verify(uint[] memory input, Proof memory proof) internal view returns (uint);\r\n    function verifyTx(\r\n            uint[2] memory a,\r\n            uint[2][2] memory b,\r\n            uint[2] memory c, \r\n            uint[2] memory input\r\n        ) public view returns (bool r);\r\n}\r\n*/",
  "sourcePath": "/home/khalil/capstone/test/HousingManagement-master/eth-contracts/contracts/SolnSquareVerifier.sol",
  "compiler": {
    "name": "solc",
    "version": "0.5.7+commit.6da8b019.Emscripten.clang"
  },
  "schemaVersion": "3.3.3",
  "updatedAt": "2020-12-29T22:09:27.961Z",
  "networkType": "ethereum",
  "devdoc": {
    "methods": {
      "isApprovedForAll(address,address)": {
        "details": "Tells whether an operator is approved by a given owner\r",
        "params": {
          "operator": "operator address which you want to query the approval of\r",
          "owner": "owner address which you want to query the approval of\r"
        },
        "return": "bool whether the given operator is approved by the given owner\r"
      },
      "setApprovalForAll(address,bool)": {
        "details": "Sets or unsets the approval of a given operator\r An operator is allowed to transfer all tokens of the sender on their behalf\r",
        "params": {
          "approved": "representing the status of the approval to be set\r",
          "to": "operator address to set the approval\r"
        }
      },
      "supportsInterface(bytes4)": {
        "details": "implement supportsInterface(bytes4) using a lookup table\r"
      },
      "tokenByIndex(uint256)": {
        "details": "Gets the token ID at a given index of all the tokens in this contract\r Reverts if the index is greater or equal to the total number of tokens\r",
        "params": {
          "index": "uint256 representing the index to be accessed of the tokens list\r"
        },
        "return": "uint256 token ID at the given index of the tokens list\r"
      },
      "tokenOfOwnerByIndex(address,uint256)": {
        "details": "Gets the token ID at a given index of the tokens list of the requested owner\r",
        "params": {
          "index": "uint256 representing the index to be accessed of the requested tokens list\r",
          "owner": "address owning the tokens list to be accessed\r"
        },
        "return": "uint256 token ID at the given index of the tokens list owned by the requested address\r"
      },
      "totalSupply()": {
        "details": "Gets the total amount of tokens stored by the contract\r",
        "return": "uint256 representing the total amount of tokens\r"
      }
    }
  },
  "userdoc": {
    "methods": {}
  }
}