{
  "contractName": "verifier",
  "abi": [
    {
      "constant": true,
      "inputs": [
        {
          "name": "a",
          "type": "uint256[2]"
        },
        {
          "name": "b",
          "type": "uint256[2][2]"
        },
        {
          "name": "c",
          "type": "uint256[2]"
        },
        {
          "name": "input",
          "type": "uint256[1]"
        }
      ],
      "name": "verifyTx",
      "outputs": [
        {
          "name": "r",
          "type": "bool"
        }
      ],
      "payable": false,
      "stateMutability": "view",
      "type": "function"
    }
  ],
  "bytecode": "0x608060405234801561001057600080fd5b50611214806100206000396000f3fe608060405234801561001057600080fd5b506004361061002b5760003560e01c8063dd12931314610030575b600080fd5b61004a60048036036100459190810190611080565b610060565b60405161005791906110f4565b60405180910390f35b600061006a610d3e565b60405180604001604052808760006002811061008257fe5b602002015181526020018760016002811061009957fe5b6020020151815250816000018190525060405180604001604052806040518060400160405280886000600281106100cc57fe5b60200201516000600281106100dd57fe5b60200201518152602001886000600281106100f457fe5b602002015160016002811061010557fe5b6020020151815250815260200160405180604001604052808860016002811061012a57fe5b602002015160006002811061013b57fe5b602002015181526020018860016002811061015257fe5b602002015160016002811061016357fe5b6020020151815250815250816020018190525060405180604001604052808560006002811061018e57fe5b60200201518152602001856001600281106101a557fe5b60200201518152508160400181905250606060016040519080825280602002602001820160405280156101e75781602001602082028038833980820191505090505b50905060008090505b600181101561022f5784816001811061020557fe5b602002015182828151811061021657fe5b60200260200101818152505080806001019150506101f0565b50600061023c828461025c565b141561024d57600192505050610254565b6000925050505b949350505050565b6000807f30644e72e131a029b85045b68181585d2833e84879b9709143e1f593f0000001905061028a610d72565b6102926103ce565b90508060800151516001865101146102a957600080fd5b6102b1610dba565b6040518060400160405280600081526020016000815250905060008090505b865181101561034757838782815181106102e657fe5b6020026020010151106102f857600080fd5b610338826103338560800151600185018151811061031257fe5b60200260200101518a858151811061032657fe5b60200260200101516107aa565b61083c565b915080806001019150506102d0565b5061036a81836080015160008151811061035d57fe5b602002602001015161083c565b90506103b085600001518660200151610382846108ed565b85604001516103948a604001516108ed565b87606001516103a689600001516108ed565b8960200151610987565b6103c057600193505050506103c8565b600093505050505b92915050565b6103d6610d72565b60405180604001604052807f1936c240636390dc823e3a728e94b208eb53c6756d81da57ec3425e05d43ac1081526020017f2d70ff78e8216bf29d58923a686d9738278b8ce2fd822e197c85b09286d155668152508160000181905250604051806040016040528060405180604001604052807f2b4daf047abe2e7f0b311118c1b963b63695dc0d769cea78849604434de055bf81526020017f29c13ecb6f33dbc4b3b8a02e2e255511ce4c26a8a2f299efcc94caf2de4fce00815250815260200160405180604001604052807f1da9020008df7f549751f8a251af3b2dc4a2ad3e0870de54acaedd9fc1b47e1781526020017f25ea0d7e2b29de431b86a943db30dbf4d98f68df9ca8a9628d14d1591e817d908152508152508160200181905250604051806040016040528060405180604001604052807f011016e22ae045444f50fb80f246ec486c7e02af09132cd38c4fcf484983e4f281526020017ee83c788c2878d1d5eba3ed49b0d81e4c0487dedc3e4d1c2baab5833785b62f815250815260200160405180604001604052807f05eb89e741ed5b5d611cebf92d1ed02cd6f3311089f0d400df7d9ced5a48fd4181526020017f132a90a3b0d369ccd66e2a5ba04a935e44d8ad5dca93a76bba592a578130a9118152508152508160400181905250604051806040016040528060405180604001604052807f065f6a3323a2abffd621fc263f348eb914904b68d5897729ae34a6b9d33f085281526020017f0c3b60f59d3bd50328a04c0ff6d979199685d0526f89f6ac29d6174ce24707a2815250815260200160405180604001604052807f26e7ebce2b44efef6b6315938e33f0a8ecc82dbad635c9efa681ed85bbb5998281526020017f12e0f3721230a0f38f6c9913048d5230fd2615ef3ff7f6ee4b20dfe0bdea1a86815250815250816060018190525060026040519080825280602002602001820160405280156106bc57816020015b6106a9610dd4565b8152602001906001900390816106a15790505b50816080018190525060405180604001604052807f01840cde4fa30a3329a998fac9f68a75bc5e5da0a29437bb29228fe7969f80ba81526020017f1702719116e1c8bb79ae4c2433326eeaad009d2946f2bc122842e5073c9dd6f4815250816080015160008151811061072b57fe5b602002602001018190525060405180604001604052807f2fcc2ddb0e7d50552976cc3483030f8aade915a998dc474f2ee6adbbdfe3483081526020017f2564ee72b2cbb0357fe7b84ace80e7153882bb13db3a18a971264d36df7b8619815250816080015160018151811061079c57fe5b602002602001018190525090565b6107b2610dba565b6107ba610dee565b8360000151816000600381106107cc57fe5b6020020181815250508360200151816001600381106107e757fe5b60200201818152505082816002600381106107fe57fe5b602002018181525050600060608360808460076107d05a03fa9050806000811461082757610829565bfe5b508061083457600080fd5b505092915050565b610844610dba565b61084c610e10565b83600001518160006004811061085e57fe5b60200201818152505083602001518160016004811061087957fe5b60200201818152505082600001518160026004811061089457fe5b6020020181815250508260200151816003600481106108af57fe5b602002018181525050600060608360c08460066107d05a03fa905080600081146108d8576108da565bfe5b50806108e557600080fd5b505092915050565b6108f5610dba565b60007f30644e72e131a029b85045b68181585d97816a916871ca8d3c208c16d87cfd47905060008360000151148015610932575060008360200151145b15610956576040518060400160405280600081526020016000815250915050610982565b6040518060400160405280846000015181526020018285602001518161097857fe5b0683038152509150505b919050565b6000606060046040519080825280602002602001820160405280156109c657816020015b6109b3610dd4565b8152602001906001900390816109ab5790505b50905060606004604051908082528060200260200182016040528015610a0657816020015b6109f3610e32565b8152602001906001900390816109eb5790505b5090508a82600081518110610a1757fe5b60200260200101819052508882600181518110610a3057fe5b60200260200101819052508682600281518110610a4957fe5b60200260200101819052508482600381518110610a6257fe5b60200260200101819052508981600081518110610a7b57fe5b60200260200101819052508781600181518110610a9457fe5b60200260200101819052508581600281518110610aad57fe5b60200260200101819052508381600381518110610ac657fe5b6020026020010181905250610adb8282610aeb565b9250505098975050505050505050565b60008151835114610afb57600080fd5b6000835190506000600682029050606081604051908082528060200260200182016040528015610b3a5781602001602082028038833980820191505090505b50905060008090505b83811015610ce057868181518110610b5757fe5b602002602001015160000151826000600684020181518110610b7557fe5b602002602001018181525050868181518110610b8d57fe5b602002602001015160200151826001600684020181518110610bab57fe5b602002602001018181525050858181518110610bc357fe5b602002602001015160000151600060028110610bdb57fe5b6020020151826002600684020181518110610bf257fe5b602002602001018181525050858181518110610c0a57fe5b602002602001015160000151600160028110610c2257fe5b6020020151826003600684020181518110610c3957fe5b602002602001018181525050858181518110610c5157fe5b602002602001015160200151600060028110610c6957fe5b6020020151826004600684020181518110610c8057fe5b602002602001018181525050858181518110610c9857fe5b602002602001015160200151600160028110610cb057fe5b6020020151826005600684020181518110610cc757fe5b6020026020010181815250508080600101915050610b43565b50610ce9610e58565b6000602082602086026020860160086107d05a03fa90508060008114610d0e57610d10565bfe5b5080610d1b57600080fd5b600082600060018110610d2a57fe5b602002015114159550505050505092915050565b604051806101000160405280610d52610dd4565b8152602001610d5f610e32565b8152602001610d6c610dd4565b81525090565b604051806101e00160405280610d86610dd4565b8152602001610d93610e32565b8152602001610da0610e32565b8152602001610dad610e32565b8152602001606081525090565b604051806040016040528060008152602001600081525090565b604051806040016040528060008152602001600081525090565b6040518060600160405280600390602082028038833980820191505090505090565b6040518060800160405280600490602082028038833980820191505090505090565b6040518060800160405280610e45610e7a565b8152602001610e52610e7a565b81525090565b6040518060200160405280600190602082028038833980820191505090505090565b6040518060400160405280600290602082028038833980820191505090505090565b600082601f830112610ead57600080fd5b6002610ec0610ebb8261113c565b61110f565b91508183856040840282011115610ed657600080fd5b60005b83811015610f065781610eec8882610f84565b845260208401935060408301925050600181019050610ed9565b5050505092915050565b600082601f830112610f2157600080fd5b6001610f34610f2f8261115e565b61110f565b91508183856020840282011115610f4a57600080fd5b60005b83811015610f7a5781610f60888261106c565b845260208401935060208301925050600181019050610f4d565b5050505092915050565b600082601f830112610f9557600080fd5b6002610fa8610fa382611180565b61110f565b91508183856020840282011115610fbe57600080fd5b60005b83811015610fee5781610fd4888261106c565b845260208401935060208301925050600181019050610fc1565b5050505092915050565b600082601f83011261100957600080fd5b600261101c611017826111a2565b61110f565b9150818385602084028201111561103257600080fd5b60005b838110156110625781611048888261106c565b845260208401935060208301925050600181019050611035565b5050505092915050565b600061107882356111d0565b905092915050565b600080600080610120858703121561109757600080fd5b60006110a587828801610ff8565b94505060406110b687828801610e9c565b93505060c06110c787828801610ff8565b9250506101006110d987828801610f10565b91505092959194509250565b6110ee816111c4565b82525050565b600060208201905061110960008301846110e5565b92915050565b6000604051905081810181811067ffffffffffffffff8211171561113257600080fd5b8060405250919050565b600067ffffffffffffffff82111561115357600080fd5b602082029050919050565b600067ffffffffffffffff82111561117557600080fd5b602082029050919050565b600067ffffffffffffffff82111561119757600080fd5b602082029050919050565b600067ffffffffffffffff8211156111b957600080fd5b602082029050919050565b60008115159050919050565b600081905091905056fea265627a7a723058206dc7895acc0889e1c945b4ed279d6b61913f082d6c0bad68747014a684a381956c6578706572696d656e74616cf50037",
  "source": "pragma solidity >=0.4.21 <0.6.0;\r\npragma experimental ABIEncoderV2;\r\n\r\nimport './verifier.sol';\r\nimport './ERC721Mintable.sol';\r\n\r\n// TODO define a contract call to the zokrates generated solidity contract <Verifier> or <renamedVerifier>\r\ncontract verifier is Verifier {\r\n    \r\n}\r\n\r\n\r\n// TODO define another contract named SolnSquareVerifier that inherits from your ERC721Mintable class\r\ncontract SolnSquareVerifier is ERC721MintableComplete{\r\n\r\n// TODO define a solutions struct that can hold an index & an address\r\nstruct Solution{\r\n    uint _index;\r\n    address _address;\r\n    bool isValue;\r\n}\r\n\r\n// TODO define an array of the above struct\r\n//Solution[] solutions;\r\n\r\n// TODO define a mapping to store unique solutions submitted\r\nmapping (uint => Solution) uniqueSolutions;\r\n\r\n// Define an interface to the verifier contract generated by zokrates--to use it for verification before minting new tokens\r\nVerifier public squareVerifier; //to access the method in there: verifyTx\r\n\r\n\r\n// TODO Create an event to emit when a solution is added\r\nevent SolutionAdded(uint _index, address _address);\r\n\r\n//Constructor\r\nconstructor(address verifierAddress) public\r\n{\r\n    squareVerifier = Verifier(verifierAddress);\r\n}\r\n\r\n\r\n// TODO Create a function to add the solutions to the array and emit the event\r\nfunction addSolution(uint Id, address owner) public{\r\n    //solutions.push(sol);\r\n    Solution memory sol = uniqueSolutions[Id];\r\n    require(!sol.isValue, \"Solution is not unique.\");\r\n    sol = Solution(Id, owner, true);\r\n    uniqueSolutions[sol._index] = sol;\r\n    emit SolutionAdded(sol._index, sol._address);\r\n}\r\n\r\n// TODO Create a function to mint new NFT only after the solution has been verified\r\n//  - make sure the solution is unique (has not been used before)\r\n//  - make sure you handle metadata as well as tokenSupply\r\n//      -returns a true boolean upon completion of the function\r\n//      -calls the superclass mint function\r\nfunction mintTokens(\r\n        uint Id,\r\n        uint[2] memory a,\r\n        uint[2][2] memory b,\r\n        uint[2] memory c, uint[1] memory input) \r\n    public\r\n    returns(bool result)\r\n{\r\n    require(squareVerifier.verifyTx(a, b, c, input), \"Cannot mint a new token- Verification failed\");\r\n    addSolution(Id, msg.sender);\r\n    result = mint(msg.sender, Id);\r\n    require(result == true, \"Couldn't mint the token\");\r\n}\r\n\r\n}//end contract\r\n/*\r\n//Interface to verifier contract generated by zokrates:\r\ncontract Verifier{\r\n    //function verifyingKey() pure internal returns (VerifyingKey memory vk);\r\n    //function verify(uint[] memory input, Proof memory proof) internal view returns (uint);\r\n    function verifyTx(\r\n            uint[2] memory a,\r\n            uint[2][2] memory b,\r\n            uint[2] memory c, \r\n            uint[2] memory input\r\n        ) public view returns (bool r);\r\n}\r\n*/",
  "sourcePath": "/home/khalil/capstone/test/HousingManagement-master/eth-contracts/contracts/SolnSquareVerifier.sol",
  "compiler": {
    "name": "solc",
    "version": "0.5.7+commit.6da8b019.Emscripten.clang"
  },
  "schemaVersion": "3.3.3",
  "updatedAt": "2020-12-29T22:09:27.950Z",
  "networkType": "ethereum",
  "devdoc": {
    "methods": {}
  },
  "userdoc": {
    "methods": {}
  }
}